{
	"contracts/Avirbhav.sol": {
		"Avirbhav": {
			"abi": [
				{
					"inputs": [
						{
							"internalType": "address",
							"name": "_admin",
							"type": "address"
						}
					],
					"stateMutability": "nonpayable",
					"type": "constructor"
				},
				{
					"inputs": [],
					"name": "admin",
					"outputs": [
						{
							"internalType": "address",
							"name": "",
							"type": "address"
						}
					],
					"stateMutability": "view",
					"type": "function"
				},
				{
					"inputs": [
						{
							"internalType": "string",
							"name": "_name",
							"type": "string"
						}
					],
					"name": "getScore",
					"outputs": [
						{
							"internalType": "int256",
							"name": "",
							"type": "int256"
						}
					],
					"stateMutability": "view",
					"type": "function"
				},
				{
					"inputs": [
						{
							"internalType": "string",
							"name": "",
							"type": "string"
						}
					],
					"name": "teams",
					"outputs": [
						{
							"internalType": "int256",
							"name": "",
							"type": "int256"
						}
					],
					"stateMutability": "view",
					"type": "function"
				},
				{
					"inputs": [
						{
							"internalType": "string",
							"name": "_name",
							"type": "string"
						},
						{
							"internalType": "int256",
							"name": "_score",
							"type": "int256"
						}
					],
					"name": "updateScore",
					"outputs": [],
					"stateMutability": "nonpayable",
					"type": "function"
				}
			],
			"devdoc": {
				"kind": "dev",
				"methods": {},
				"version": 1
			},
			"evm": {
				"assembly": "    /* \"contracts/Avirbhav.sol\":70:776  contract Avirbhav{... */\n  mstore(0x40, 0x80)\n    /* \"contracts/Avirbhav.sol\":264:367  constructor (address _admin) public{... */\n  callvalue\n  dup1\n  iszero\n  tag_1\n  jumpi\n  0x00\n  dup1\n  revert\ntag_1:\n  pop\n  mload(0x40)\n  sub(codesize, bytecodeSize)\n  dup1\n  bytecodeSize\n  dup4\n  codecopy\n  dup2\n  dup2\n  add\n  0x40\n  mstore\n  dup2\n  add\n  swap1\n  tag_2\n  swap2\n  swap1\n  tag_3\n  jump\t// in\ntag_2:\n    /* \"contracts/Avirbhav.sol\":321:327  _admin */\n  dup1\n    /* \"contracts/Avirbhav.sol\":313:318  admin */\n  0x00\n  dup1\n    /* \"contracts/Avirbhav.sol\":313:327  admin = _admin */\n  0x0100\n  exp\n  dup2\n  sload\n  dup2\n  0xffffffffffffffffffffffffffffffffffffffff\n  mul\n  not\n  and\n  swap1\n  dup4\n  0xffffffffffffffffffffffffffffffffffffffff\n  and\n  mul\n  or\n  swap1\n  sstore\n  pop\n    /* \"contracts/Avirbhav.sol\":339:356  initializeTeams() */\n  tag_6\n    /* \"contracts/Avirbhav.sol\":339:354  initializeTeams */\n  shl(0x20, tag_7)\n    /* \"contracts/Avirbhav.sol\":339:356  initializeTeams() */\n  0x20\n  shr\n  jump\t// in\ntag_6:\n    /* \"contracts/Avirbhav.sol\":264:367  constructor (address _admin) public{... */\n  pop\n    /* \"contracts/Avirbhav.sol\":70:776  contract Avirbhav{... */\n  jump(tag_8)\n    /* \"contracts/Avirbhav.sol\":384:535  function initializeTeams() private {... */\ntag_7:\n    /* \"contracts/Avirbhav.sol\":444:445  0 */\n  0x00\n    /* \"contracts/Avirbhav.sol\":429:434  teams */\n  0x01\n    /* \"contracts/Avirbhav.sol\":429:441  teams[\"jal\"] */\n  mload(0x40)\n  tag_10\n  swap1\n  tag_11\n  jump\t// in\ntag_10:\n  swap1\n  dup2\n  mstore\n  0x20\n  add\n  mload(0x40)\n  dup1\n  swap2\n  sub\n  swap1\n  keccak256\n    /* \"contracts/Avirbhav.sol\":429:445  teams[\"jal\"] = 0 */\n  dup2\n  swap1\n  sstore\n  pop\n    /* \"contracts/Avirbhav.sol\":471:472  0 */\n  0x00\n    /* \"contracts/Avirbhav.sol\":455:460  teams */\n  0x01\n    /* \"contracts/Avirbhav.sol\":455:468  teams[\"vayu\"] */\n  mload(0x40)\n  tag_12\n  swap1\n  tag_13\n  jump\t// in\ntag_12:\n  swap1\n  dup2\n  mstore\n  0x20\n  add\n  mload(0x40)\n  dup1\n  swap2\n  sub\n  swap1\n  keccak256\n    /* \"contracts/Avirbhav.sol\":455:472  teams[\"vayu\"] = 0 */\n  dup2\n  swap1\n  sstore\n  pop\n    /* \"contracts/Avirbhav.sol\":498:499  0 */\n  0x00\n    /* \"contracts/Avirbhav.sol\":482:487  teams */\n  0x01\n    /* \"contracts/Avirbhav.sol\":482:495  teams[\"agni\"] */\n  mload(0x40)\n  tag_14\n  swap1\n  tag_15\n  jump\t// in\ntag_14:\n  swap1\n  dup2\n  mstore\n  0x20\n  add\n  mload(0x40)\n  dup1\n  swap2\n  sub\n  swap1\n  keccak256\n    /* \"contracts/Avirbhav.sol\":482:499  teams[\"agni\"] = 0 */\n  dup2\n  swap1\n  sstore\n  pop\n    /* \"contracts/Avirbhav.sol\":526:527  0 */\n  0x00\n    /* \"contracts/Avirbhav.sol\":509:514  teams */\n  0x01\n    /* \"contracts/Avirbhav.sol\":509:523  teams[\"nandi\"] */\n  mload(0x40)\n  tag_16\n  swap1\n  tag_17\n  jump\t// in\ntag_16:\n  swap1\n  dup2\n  mstore\n  0x20\n  add\n  mload(0x40)\n  dup1\n  swap2\n  sub\n  swap1\n  keccak256\n    /* \"contracts/Avirbhav.sol\":509:527  teams[\"nandi\"] = 0 */\n  dup2\n  swap1\n  sstore\n  pop\n    /* \"contracts/Avirbhav.sol\":384:535  function initializeTeams() private {... */\n  jump\t// out\n    /* \"#utility.yul\":88:205   */\ntag_19:\n    /* \"#utility.yul\":197:198   */\n  0x00\n    /* \"#utility.yul\":194:195   */\n  dup1\n    /* \"#utility.yul\":187:199   */\n  revert\n    /* \"#utility.yul\":334:460   */\ntag_21:\n    /* \"#utility.yul\":371:378   */\n  0x00\n    /* \"#utility.yul\":411:453   */\n  0xffffffffffffffffffffffffffffffffffffffff\n    /* \"#utility.yul\":404:409   */\n  dup3\n    /* \"#utility.yul\":400:454   */\n  and\n    /* \"#utility.yul\":389:454   */\n  swap1\n  pop\n    /* \"#utility.yul\":334:460   */\n  swap2\n  swap1\n  pop\n  jump\t// out\n    /* \"#utility.yul\":466:562   */\ntag_22:\n    /* \"#utility.yul\":503:510   */\n  0x00\n    /* \"#utility.yul\":532:556   */\n  tag_40\n    /* \"#utility.yul\":550:555   */\n  dup3\n    /* \"#utility.yul\":532:556   */\n  tag_21\n  jump\t// in\ntag_40:\n    /* \"#utility.yul\":521:556   */\n  swap1\n  pop\n    /* \"#utility.yul\":466:562   */\n  swap2\n  swap1\n  pop\n  jump\t// out\n    /* \"#utility.yul\":568:690   */\ntag_23:\n    /* \"#utility.yul\":641:665   */\n  tag_42\n    /* \"#utility.yul\":659:664   */\n  dup2\n    /* \"#utility.yul\":641:665   */\n  tag_22\n  jump\t// in\ntag_42:\n    /* \"#utility.yul\":634:639   */\n  dup2\n    /* \"#utility.yul\":631:666   */\n  eq\n    /* \"#utility.yul\":621:684   */\n  tag_43\n  jumpi\n    /* \"#utility.yul\":680:681   */\n  0x00\n    /* \"#utility.yul\":677:678   */\n  dup1\n    /* \"#utility.yul\":670:682   */\n  revert\n    /* \"#utility.yul\":621:684   */\ntag_43:\n    /* \"#utility.yul\":568:690   */\n  pop\n  jump\t// out\n    /* \"#utility.yul\":696:839   */\ntag_24:\n    /* \"#utility.yul\":753:758   */\n  0x00\n    /* \"#utility.yul\":784:790   */\n  dup2\n    /* \"#utility.yul\":778:791   */\n  mload\n    /* \"#utility.yul\":769:791   */\n  swap1\n  pop\n    /* \"#utility.yul\":800:833   */\n  tag_45\n    /* \"#utility.yul\":827:832   */\n  dup2\n    /* \"#utility.yul\":800:833   */\n  tag_23\n  jump\t// in\ntag_45:\n    /* \"#utility.yul\":696:839   */\n  swap3\n  swap2\n  pop\n  pop\n  jump\t// out\n    /* \"#utility.yul\":845:1196   */\ntag_3:\n    /* \"#utility.yul\":915:921   */\n  0x00\n    /* \"#utility.yul\":964:966   */\n  0x20\n    /* \"#utility.yul\":952:961   */\n  dup3\n    /* \"#utility.yul\":943:950   */\n  dup5\n    /* \"#utility.yul\":939:962   */\n  sub\n    /* \"#utility.yul\":935:967   */\n  slt\n    /* \"#utility.yul\":932:1051   */\n  iszero\n  tag_47\n  jumpi\n    /* \"#utility.yul\":970:1049   */\n  tag_48\n  tag_19\n  jump\t// in\ntag_48:\n    /* \"#utility.yul\":932:1051   */\ntag_47:\n    /* \"#utility.yul\":1090:1091   */\n  0x00\n    /* \"#utility.yul\":1115:1179   */\n  tag_49\n    /* \"#utility.yul\":1171:1178   */\n  dup5\n    /* \"#utility.yul\":1162:1168   */\n  dup3\n    /* \"#utility.yul\":1151:1160   */\n  dup6\n    /* \"#utility.yul\":1147:1169   */\n  add\n    /* \"#utility.yul\":1115:1179   */\n  tag_24\n  jump\t// in\ntag_49:\n    /* \"#utility.yul\":1105:1179   */\n  swap2\n  pop\n    /* \"#utility.yul\":1061:1189   */\n  pop\n    /* \"#utility.yul\":845:1196   */\n  swap3\n  swap2\n  pop\n  pop\n  jump\t// out\n    /* \"#utility.yul\":1202:1350   */\ntag_25:\n    /* \"#utility.yul\":1304:1315   */\n  0x00\n    /* \"#utility.yul\":1341:1344   */\n  dup2\n    /* \"#utility.yul\":1326:1344   */\n  swap1\n  pop\n    /* \"#utility.yul\":1202:1350   */\n  swap3\n  swap2\n  pop\n  pop\n  jump\t// out\n    /* \"#utility.yul\":1356:1509   */\ntag_26:\n    /* \"#utility.yul\":1496:1501   */\n  0x6a616c0000000000000000000000000000000000000000000000000000000000\n    /* \"#utility.yul\":1492:1493   */\n  0x00\n    /* \"#utility.yul\":1484:1490   */\n  dup3\n    /* \"#utility.yul\":1480:1494   */\n  add\n    /* \"#utility.yul\":1473:1502   */\n  mstore\n    /* \"#utility.yul\":1356:1509   */\n  pop\n  jump\t// out\n    /* \"#utility.yul\":1515:1915   */\ntag_27:\n    /* \"#utility.yul\":1675:1678   */\n  0x00\n    /* \"#utility.yul\":1696:1780   */\n  tag_53\n    /* \"#utility.yul\":1778:1779   */\n  0x03\n    /* \"#utility.yul\":1773:1776   */\n  dup4\n    /* \"#utility.yul\":1696:1780   */\n  tag_25\n  jump\t// in\ntag_53:\n    /* \"#utility.yul\":1689:1780   */\n  swap2\n  pop\n    /* \"#utility.yul\":1789:1882   */\n  tag_54\n    /* \"#utility.yul\":1878:1881   */\n  dup3\n    /* \"#utility.yul\":1789:1882   */\n  tag_26\n  jump\t// in\ntag_54:\n    /* \"#utility.yul\":1907:1908   */\n  0x03\n    /* \"#utility.yul\":1902:1905   */\n  dup3\n    /* \"#utility.yul\":1898:1909   */\n  add\n    /* \"#utility.yul\":1891:1909   */\n  swap1\n  pop\n    /* \"#utility.yul\":1515:1915   */\n  swap2\n  swap1\n  pop\n  jump\t// out\n    /* \"#utility.yul\":1921:2302   */\ntag_11:\n    /* \"#utility.yul\":2106:2109   */\n  0x00\n    /* \"#utility.yul\":2128:2276   */\n  tag_56\n    /* \"#utility.yul\":2272:2275   */\n  dup3\n    /* \"#utility.yul\":2128:2276   */\n  tag_27\n  jump\t// in\ntag_56:\n    /* \"#utility.yul\":2121:2276   */\n  swap2\n  pop\n    /* \"#utility.yul\":2293:2296   */\n  dup2\n    /* \"#utility.yul\":2286:2296   */\n  swap1\n  pop\n    /* \"#utility.yul\":1921:2302   */\n  swap2\n  swap1\n  pop\n  jump\t// out\n    /* \"#utility.yul\":2308:2462   */\ntag_28:\n    /* \"#utility.yul\":2448:2454   */\n  0x7661797500000000000000000000000000000000000000000000000000000000\n    /* \"#utility.yul\":2444:2445   */\n  0x00\n    /* \"#utility.yul\":2436:2442   */\n  dup3\n    /* \"#utility.yul\":2432:2446   */\n  add\n    /* \"#utility.yul\":2425:2455   */\n  mstore\n    /* \"#utility.yul\":2308:2462   */\n  pop\n  jump\t// out\n    /* \"#utility.yul\":2468:2868   */\ntag_29:\n    /* \"#utility.yul\":2628:2631   */\n  0x00\n    /* \"#utility.yul\":2649:2733   */\n  tag_59\n    /* \"#utility.yul\":2731:2732   */\n  0x04\n    /* \"#utility.yul\":2726:2729   */\n  dup4\n    /* \"#utility.yul\":2649:2733   */\n  tag_25\n  jump\t// in\ntag_59:\n    /* \"#utility.yul\":2642:2733   */\n  swap2\n  pop\n    /* \"#utility.yul\":2742:2835   */\n  tag_60\n    /* \"#utility.yul\":2831:2834   */\n  dup3\n    /* \"#utility.yul\":2742:2835   */\n  tag_28\n  jump\t// in\ntag_60:\n    /* \"#utility.yul\":2860:2861   */\n  0x04\n    /* \"#utility.yul\":2855:2858   */\n  dup3\n    /* \"#utility.yul\":2851:2862   */\n  add\n    /* \"#utility.yul\":2844:2862   */\n  swap1\n  pop\n    /* \"#utility.yul\":2468:2868   */\n  swap2\n  swap1\n  pop\n  jump\t// out\n    /* \"#utility.yul\":2874:3255   */\ntag_13:\n    /* \"#utility.yul\":3059:3062   */\n  0x00\n    /* \"#utility.yul\":3081:3229   */\n  tag_62\n    /* \"#utility.yul\":3225:3228   */\n  dup3\n    /* \"#utility.yul\":3081:3229   */\n  tag_29\n  jump\t// in\ntag_62:\n    /* \"#utility.yul\":3074:3229   */\n  swap2\n  pop\n    /* \"#utility.yul\":3246:3249   */\n  dup2\n    /* \"#utility.yul\":3239:3249   */\n  swap1\n  pop\n    /* \"#utility.yul\":2874:3255   */\n  swap2\n  swap1\n  pop\n  jump\t// out\n    /* \"#utility.yul\":3261:3415   */\ntag_30:\n    /* \"#utility.yul\":3401:3407   */\n  0x61676e6900000000000000000000000000000000000000000000000000000000\n    /* \"#utility.yul\":3397:3398   */\n  0x00\n    /* \"#utility.yul\":3389:3395   */\n  dup3\n    /* \"#utility.yul\":3385:3399   */\n  add\n    /* \"#utility.yul\":3378:3408   */\n  mstore\n    /* \"#utility.yul\":3261:3415   */\n  pop\n  jump\t// out\n    /* \"#utility.yul\":3421:3821   */\ntag_31:\n    /* \"#utility.yul\":3581:3584   */\n  0x00\n    /* \"#utility.yul\":3602:3686   */\n  tag_65\n    /* \"#utility.yul\":3684:3685   */\n  0x04\n    /* \"#utility.yul\":3679:3682   */\n  dup4\n    /* \"#utility.yul\":3602:3686   */\n  tag_25\n  jump\t// in\ntag_65:\n    /* \"#utility.yul\":3595:3686   */\n  swap2\n  pop\n    /* \"#utility.yul\":3695:3788   */\n  tag_66\n    /* \"#utility.yul\":3784:3787   */\n  dup3\n    /* \"#utility.yul\":3695:3788   */\n  tag_30\n  jump\t// in\ntag_66:\n    /* \"#utility.yul\":3813:3814   */\n  0x04\n    /* \"#utility.yul\":3808:3811   */\n  dup3\n    /* \"#utility.yul\":3804:3815   */\n  add\n    /* \"#utility.yul\":3797:3815   */\n  swap1\n  pop\n    /* \"#utility.yul\":3421:3821   */\n  swap2\n  swap1\n  pop\n  jump\t// out\n    /* \"#utility.yul\":3827:4208   */\ntag_15:\n    /* \"#utility.yul\":4012:4015   */\n  0x00\n    /* \"#utility.yul\":4034:4182   */\n  tag_68\n    /* \"#utility.yul\":4178:4181   */\n  dup3\n    /* \"#utility.yul\":4034:4182   */\n  tag_31\n  jump\t// in\ntag_68:\n    /* \"#utility.yul\":4027:4182   */\n  swap2\n  pop\n    /* \"#utility.yul\":4199:4202   */\n  dup2\n    /* \"#utility.yul\":4192:4202   */\n  swap1\n  pop\n    /* \"#utility.yul\":3827:4208   */\n  swap2\n  swap1\n  pop\n  jump\t// out\n    /* \"#utility.yul\":4214:4369   */\ntag_32:\n    /* \"#utility.yul\":4354:4361   */\n  0x6e616e6469000000000000000000000000000000000000000000000000000000\n    /* \"#utility.yul\":4350:4351   */\n  0x00\n    /* \"#utility.yul\":4342:4348   */\n  dup3\n    /* \"#utility.yul\":4338:4352   */\n  add\n    /* \"#utility.yul\":4331:4362   */\n  mstore\n    /* \"#utility.yul\":4214:4369   */\n  pop\n  jump\t// out\n    /* \"#utility.yul\":4375:4775   */\ntag_33:\n    /* \"#utility.yul\":4535:4538   */\n  0x00\n    /* \"#utility.yul\":4556:4640   */\n  tag_71\n    /* \"#utility.yul\":4638:4639   */\n  0x05\n    /* \"#utility.yul\":4633:4636   */\n  dup4\n    /* \"#utility.yul\":4556:4640   */\n  tag_25\n  jump\t// in\ntag_71:\n    /* \"#utility.yul\":4549:4640   */\n  swap2\n  pop\n    /* \"#utility.yul\":4649:4742   */\n  tag_72\n    /* \"#utility.yul\":4738:4741   */\n  dup3\n    /* \"#utility.yul\":4649:4742   */\n  tag_32\n  jump\t// in\ntag_72:\n    /* \"#utility.yul\":4767:4768   */\n  0x05\n    /* \"#utility.yul\":4762:4765   */\n  dup3\n    /* \"#utility.yul\":4758:4769   */\n  add\n    /* \"#utility.yul\":4751:4769   */\n  swap1\n  pop\n    /* \"#utility.yul\":4375:4775   */\n  swap2\n  swap1\n  pop\n  jump\t// out\n    /* \"#utility.yul\":4781:5162   */\ntag_17:\n    /* \"#utility.yul\":4966:4969   */\n  0x00\n    /* \"#utility.yul\":4988:5136   */\n  tag_74\n    /* \"#utility.yul\":5132:5135   */\n  dup3\n    /* \"#utility.yul\":4988:5136   */\n  tag_33\n  jump\t// in\ntag_74:\n    /* \"#utility.yul\":4981:5136   */\n  swap2\n  pop\n    /* \"#utility.yul\":5153:5156   */\n  dup2\n    /* \"#utility.yul\":5146:5156   */\n  swap1\n  pop\n    /* \"#utility.yul\":4781:5162   */\n  swap2\n  swap1\n  pop\n  jump\t// out\n    /* \"contracts/Avirbhav.sol\":70:776  contract Avirbhav{... */\ntag_8:\n  dataSize(sub_0)\n  dup1\n  dataOffset(sub_0)\n  0x00\n  codecopy\n  0x00\n  return\nstop\n\nsub_0: assembly {\n        /* \"contracts/Avirbhav.sol\":70:776  contract Avirbhav{... */\n      mstore(0x40, 0x80)\n      callvalue\n      dup1\n      iszero\n      tag_1\n      jumpi\n      0x00\n      dup1\n      revert\n    tag_1:\n      pop\n      jumpi(tag_2, lt(calldatasize, 0x04))\n      shr(0xe0, calldataload(0x00))\n      dup1\n      0x0c173c02\n      eq\n      tag_3\n      jumpi\n      dup1\n      0x16020273\n      eq\n      tag_4\n      jumpi\n      dup1\n      0xe65d6193\n      eq\n      tag_5\n      jumpi\n      dup1\n      0xf851a440\n      eq\n      tag_6\n      jumpi\n    tag_2:\n      0x00\n      dup1\n      revert\n        /* \"contracts/Avirbhav.sol\":121:159  mapping (string => int)  public  teams */\n    tag_3:\n      tag_7\n      0x04\n      dup1\n      calldatasize\n      sub\n      dup2\n      add\n      swap1\n      tag_8\n      swap2\n      swap1\n      tag_9\n      jump\t// in\n    tag_8:\n      tag_10\n      jump\t// in\n    tag_7:\n      mload(0x40)\n      tag_11\n      swap2\n      swap1\n      tag_12\n      jump\t// in\n    tag_11:\n      mload(0x40)\n      dup1\n      swap2\n      sub\n      swap1\n      return\n        /* \"contracts/Avirbhav.sol\":667:771  function getScore(string memory _name)public view returns(int){... */\n    tag_4:\n      tag_13\n      0x04\n      dup1\n      calldatasize\n      sub\n      dup2\n      add\n      swap1\n      tag_14\n      swap2\n      swap1\n      tag_9\n      jump\t// in\n    tag_14:\n      tag_15\n      jump\t// in\n    tag_13:\n      mload(0x40)\n      tag_16\n      swap2\n      swap1\n      tag_12\n      jump\t// in\n    tag_16:\n      mload(0x40)\n      dup1\n      swap2\n      sub\n      swap1\n      return\n        /* \"contracts/Avirbhav.sol\":545:658  function updateScore(string memory _name, int _score)public onlyAdmin {... */\n    tag_5:\n      tag_17\n      0x04\n      dup1\n      calldatasize\n      sub\n      dup2\n      add\n      swap1\n      tag_18\n      swap2\n      swap1\n      tag_19\n      jump\t// in\n    tag_18:\n      tag_20\n      jump\t// in\n    tag_17:\n      stop\n        /* \"contracts/Avirbhav.sol\":93:113  address public admin */\n    tag_6:\n      tag_21\n      tag_22\n      jump\t// in\n    tag_21:\n      mload(0x40)\n      tag_23\n      swap2\n      swap1\n      tag_24\n      jump\t// in\n    tag_23:\n      mload(0x40)\n      dup1\n      swap2\n      sub\n      swap1\n      return\n        /* \"contracts/Avirbhav.sol\":121:159  mapping (string => int)  public  teams */\n    tag_10:\n      0x01\n      dup2\n      dup1\n      mload\n      0x20\n      dup2\n      add\n      dup3\n      add\n      dup1\n      mload\n      dup5\n      dup3\n      mstore\n      0x20\n      dup4\n      add\n      0x20\n      dup6\n      add\n      keccak256\n      dup2\n      dup4\n      mstore\n      dup1\n      swap6\n      pop\n      pop\n      pop\n      pop\n      pop\n      pop\n      0x00\n      swap2\n      pop\n      swap1\n      pop\n      sload\n      dup2\n      jump\t// out\n        /* \"contracts/Avirbhav.sol\":667:771  function getScore(string memory _name)public view returns(int){... */\n    tag_15:\n        /* \"contracts/Avirbhav.sol\":725:728  int */\n      0x00\n        /* \"contracts/Avirbhav.sol\":749:754  teams */\n      0x01\n        /* \"contracts/Avirbhav.sol\":755:760  _name */\n      dup3\n        /* \"contracts/Avirbhav.sol\":749:761  teams[_name] */\n      mload(0x40)\n      tag_26\n      swap2\n      swap1\n      tag_27\n      jump\t// in\n    tag_26:\n      swap1\n      dup2\n      mstore\n      0x20\n      add\n      mload(0x40)\n      dup1\n      swap2\n      sub\n      swap1\n      keccak256\n      sload\n        /* \"contracts/Avirbhav.sol\":742:761  return teams[_name] */\n      swap1\n      pop\n        /* \"contracts/Avirbhav.sol\":667:771  function getScore(string memory _name)public view returns(int){... */\n      swap2\n      swap1\n      pop\n      jump\t// out\n        /* \"contracts/Avirbhav.sol\":545:658  function updateScore(string memory _name, int _score)public onlyAdmin {... */\n    tag_20:\n        /* \"contracts/Avirbhav.sol\":227:232  admin */\n      0x00\n      dup1\n      sload\n      swap1\n      0x0100\n      exp\n      swap1\n      div\n      0xffffffffffffffffffffffffffffffffffffffff\n      and\n        /* \"contracts/Avirbhav.sol\":213:232  msg.sender == admin */\n      0xffffffffffffffffffffffffffffffffffffffff\n      and\n        /* \"contracts/Avirbhav.sol\":213:223  msg.sender */\n      caller\n        /* \"contracts/Avirbhav.sol\":213:232  msg.sender == admin */\n      0xffffffffffffffffffffffffffffffffffffffff\n      and\n      eq\n        /* \"contracts/Avirbhav.sol\":205:233  require(msg.sender == admin) */\n      tag_29\n      jumpi\n      0x00\n      dup1\n      revert\n    tag_29:\n        /* \"contracts/Avirbhav.sol\":644:650  _score */\n      dup1\n        /* \"contracts/Avirbhav.sol\":628:633  teams */\n      0x01\n        /* \"contracts/Avirbhav.sol\":634:639  _name */\n      dup4\n        /* \"contracts/Avirbhav.sol\":628:640  teams[_name] */\n      mload(0x40)\n      tag_31\n      swap2\n      swap1\n      tag_27\n      jump\t// in\n    tag_31:\n      swap1\n      dup2\n      mstore\n      0x20\n      add\n      mload(0x40)\n      dup1\n      swap2\n      sub\n      swap1\n      keccak256\n      0x00\n        /* \"contracts/Avirbhav.sol\":628:650  teams[_name] += _score */\n      dup3\n      dup3\n      sload\n      tag_32\n      swap2\n      swap1\n      tag_33\n      jump\t// in\n    tag_32:\n      swap3\n      pop\n      pop\n      dup2\n      swap1\n      sstore\n      pop\n        /* \"contracts/Avirbhav.sol\":545:658  function updateScore(string memory _name, int _score)public onlyAdmin {... */\n      pop\n      pop\n      jump\t// out\n        /* \"contracts/Avirbhav.sol\":93:113  address public admin */\n    tag_22:\n      0x00\n      dup1\n      sload\n      swap1\n      0x0100\n      exp\n      swap1\n      div\n      0xffffffffffffffffffffffffffffffffffffffff\n      and\n      dup2\n      jump\t// out\n        /* \"#utility.yul\":7:82   */\n    tag_34:\n        /* \"#utility.yul\":40:46   */\n      0x00\n        /* \"#utility.yul\":73:75   */\n      0x40\n        /* \"#utility.yul\":67:76   */\n      mload\n        /* \"#utility.yul\":57:76   */\n      swap1\n      pop\n        /* \"#utility.yul\":7:82   */\n      swap1\n      jump\t// out\n        /* \"#utility.yul\":88:205   */\n    tag_35:\n        /* \"#utility.yul\":197:198   */\n      0x00\n        /* \"#utility.yul\":194:195   */\n      dup1\n        /* \"#utility.yul\":187:199   */\n      revert\n        /* \"#utility.yul\":211:328   */\n    tag_36:\n        /* \"#utility.yul\":320:321   */\n      0x00\n        /* \"#utility.yul\":317:318   */\n      dup1\n        /* \"#utility.yul\":310:322   */\n      revert\n        /* \"#utility.yul\":334:451   */\n    tag_37:\n        /* \"#utility.yul\":443:444   */\n      0x00\n        /* \"#utility.yul\":440:441   */\n      dup1\n        /* \"#utility.yul\":433:445   */\n      revert\n        /* \"#utility.yul\":457:574   */\n    tag_38:\n        /* \"#utility.yul\":566:567   */\n      0x00\n        /* \"#utility.yul\":563:564   */\n      dup1\n        /* \"#utility.yul\":556:568   */\n      revert\n        /* \"#utility.yul\":580:682   */\n    tag_39:\n        /* \"#utility.yul\":621:627   */\n      0x00\n        /* \"#utility.yul\":672:674   */\n      0x1f\n        /* \"#utility.yul\":668:675   */\n      not\n        /* \"#utility.yul\":663:665   */\n      0x1f\n        /* \"#utility.yul\":656:661   */\n      dup4\n        /* \"#utility.yul\":652:666   */\n      add\n        /* \"#utility.yul\":648:676   */\n      and\n        /* \"#utility.yul\":638:676   */\n      swap1\n      pop\n        /* \"#utility.yul\":580:682   */\n      swap2\n      swap1\n      pop\n      jump\t// out\n        /* \"#utility.yul\":688:868   */\n    tag_40:\n        /* \"#utility.yul\":736:813   */\n      0x4e487b7100000000000000000000000000000000000000000000000000000000\n        /* \"#utility.yul\":733:734   */\n      0x00\n        /* \"#utility.yul\":726:814   */\n      mstore\n        /* \"#utility.yul\":833:837   */\n      0x41\n        /* \"#utility.yul\":830:831   */\n      0x04\n        /* \"#utility.yul\":823:838   */\n      mstore\n        /* \"#utility.yul\":857:861   */\n      0x24\n        /* \"#utility.yul\":854:855   */\n      0x00\n        /* \"#utility.yul\":847:862   */\n      revert\n        /* \"#utility.yul\":874:1155   */\n    tag_41:\n        /* \"#utility.yul\":957:984   */\n      tag_68\n        /* \"#utility.yul\":979:983   */\n      dup3\n        /* \"#utility.yul\":957:984   */\n      tag_39\n      jump\t// in\n    tag_68:\n        /* \"#utility.yul\":949:955   */\n      dup2\n        /* \"#utility.yul\":945:985   */\n      add\n        /* \"#utility.yul\":1087:1093   */\n      dup2\n        /* \"#utility.yul\":1075:1085   */\n      dup2\n        /* \"#utility.yul\":1072:1094   */\n      lt\n        /* \"#utility.yul\":1051:1069   */\n      0xffffffffffffffff\n        /* \"#utility.yul\":1039:1049   */\n      dup3\n        /* \"#utility.yul\":1036:1070   */\n      gt\n        /* \"#utility.yul\":1033:1095   */\n      or\n        /* \"#utility.yul\":1030:1118   */\n      iszero\n      tag_69\n      jumpi\n        /* \"#utility.yul\":1098:1116   */\n      tag_70\n      tag_40\n      jump\t// in\n    tag_70:\n        /* \"#utility.yul\":1030:1118   */\n    tag_69:\n        /* \"#utility.yul\":1138:1148   */\n      dup1\n        /* \"#utility.yul\":1134:1136   */\n      0x40\n        /* \"#utility.yul\":1127:1149   */\n      mstore\n        /* \"#utility.yul\":917:1155   */\n      pop\n        /* \"#utility.yul\":874:1155   */\n      pop\n      pop\n      jump\t// out\n        /* \"#utility.yul\":1161:1290   */\n    tag_42:\n        /* \"#utility.yul\":1195:1201   */\n      0x00\n        /* \"#utility.yul\":1222:1242   */\n      tag_72\n      tag_34\n      jump\t// in\n    tag_72:\n        /* \"#utility.yul\":1212:1242   */\n      swap1\n      pop\n        /* \"#utility.yul\":1251:1284   */\n      tag_73\n        /* \"#utility.yul\":1279:1283   */\n      dup3\n        /* \"#utility.yul\":1271:1277   */\n      dup3\n        /* \"#utility.yul\":1251:1284   */\n      tag_41\n      jump\t// in\n    tag_73:\n        /* \"#utility.yul\":1161:1290   */\n      swap2\n      swap1\n      pop\n      jump\t// out\n        /* \"#utility.yul\":1296:1604   */\n    tag_43:\n        /* \"#utility.yul\":1358:1362   */\n      0x00\n        /* \"#utility.yul\":1448:1466   */\n      0xffffffffffffffff\n        /* \"#utility.yul\":1440:1446   */\n      dup3\n        /* \"#utility.yul\":1437:1467   */\n      gt\n        /* \"#utility.yul\":1434:1490   */\n      iszero\n      tag_75\n      jumpi\n        /* \"#utility.yul\":1470:1488   */\n      tag_76\n      tag_40\n      jump\t// in\n    tag_76:\n        /* \"#utility.yul\":1434:1490   */\n    tag_75:\n        /* \"#utility.yul\":1508:1537   */\n      tag_77\n        /* \"#utility.yul\":1530:1536   */\n      dup3\n        /* \"#utility.yul\":1508:1537   */\n      tag_39\n      jump\t// in\n    tag_77:\n        /* \"#utility.yul\":1500:1537   */\n      swap1\n      pop\n        /* \"#utility.yul\":1592:1596   */\n      0x20\n        /* \"#utility.yul\":1586:1590   */\n      dup2\n        /* \"#utility.yul\":1582:1597   */\n      add\n        /* \"#utility.yul\":1574:1597   */\n      swap1\n      pop\n        /* \"#utility.yul\":1296:1604   */\n      swap2\n      swap1\n      pop\n      jump\t// out\n        /* \"#utility.yul\":1610:1756   */\n    tag_44:\n        /* \"#utility.yul\":1707:1713   */\n      dup3\n        /* \"#utility.yul\":1702:1705   */\n      dup2\n        /* \"#utility.yul\":1697:1700   */\n      dup4\n        /* \"#utility.yul\":1684:1714   */\n      calldatacopy\n        /* \"#utility.yul\":1748:1749   */\n      0x00\n        /* \"#utility.yul\":1739:1745   */\n      dup4\n        /* \"#utility.yul\":1734:1737   */\n      dup4\n        /* \"#utility.yul\":1730:1746   */\n      add\n        /* \"#utility.yul\":1723:1750   */\n      mstore\n        /* \"#utility.yul\":1610:1756   */\n      pop\n      pop\n      pop\n      jump\t// out\n        /* \"#utility.yul\":1762:2187   */\n    tag_45:\n        /* \"#utility.yul\":1840:1845   */\n      0x00\n        /* \"#utility.yul\":1865:1931   */\n      tag_80\n        /* \"#utility.yul\":1881:1930   */\n      tag_81\n        /* \"#utility.yul\":1923:1929   */\n      dup5\n        /* \"#utility.yul\":1881:1930   */\n      tag_43\n      jump\t// in\n    tag_81:\n        /* \"#utility.yul\":1865:1931   */\n      tag_42\n      jump\t// in\n    tag_80:\n        /* \"#utility.yul\":1856:1931   */\n      swap1\n      pop\n        /* \"#utility.yul\":1954:1960   */\n      dup3\n        /* \"#utility.yul\":1947:1952   */\n      dup2\n        /* \"#utility.yul\":1940:1961   */\n      mstore\n        /* \"#utility.yul\":1992:1996   */\n      0x20\n        /* \"#utility.yul\":1985:1990   */\n      dup2\n        /* \"#utility.yul\":1981:1997   */\n      add\n        /* \"#utility.yul\":2030:2033   */\n      dup5\n        /* \"#utility.yul\":2021:2027   */\n      dup5\n        /* \"#utility.yul\":2016:2019   */\n      dup5\n        /* \"#utility.yul\":2012:2028   */\n      add\n        /* \"#utility.yul\":2009:2034   */\n      gt\n        /* \"#utility.yul\":2006:2118   */\n      iszero\n      tag_82\n      jumpi\n        /* \"#utility.yul\":2037:2116   */\n      tag_83\n      tag_38\n      jump\t// in\n    tag_83:\n        /* \"#utility.yul\":2006:2118   */\n    tag_82:\n        /* \"#utility.yul\":2127:2181   */\n      tag_84\n        /* \"#utility.yul\":2174:2180   */\n      dup5\n        /* \"#utility.yul\":2169:2172   */\n      dup3\n        /* \"#utility.yul\":2164:2167   */\n      dup6\n        /* \"#utility.yul\":2127:2181   */\n      tag_44\n      jump\t// in\n    tag_84:\n        /* \"#utility.yul\":1846:2187   */\n      pop\n        /* \"#utility.yul\":1762:2187   */\n      swap4\n      swap3\n      pop\n      pop\n      pop\n      jump\t// out\n        /* \"#utility.yul\":2207:2547   */\n    tag_46:\n        /* \"#utility.yul\":2263:2268   */\n      0x00\n        /* \"#utility.yul\":2312:2315   */\n      dup3\n        /* \"#utility.yul\":2305:2309   */\n      0x1f\n        /* \"#utility.yul\":2297:2303   */\n      dup4\n        /* \"#utility.yul\":2293:2310   */\n      add\n        /* \"#utility.yul\":2289:2316   */\n      slt\n        /* \"#utility.yul\":2279:2401   */\n      tag_86\n      jumpi\n        /* \"#utility.yul\":2320:2399   */\n      tag_87\n      tag_37\n      jump\t// in\n    tag_87:\n        /* \"#utility.yul\":2279:2401   */\n    tag_86:\n        /* \"#utility.yul\":2437:2443   */\n      dup2\n        /* \"#utility.yul\":2424:2444   */\n      calldataload\n        /* \"#utility.yul\":2462:2541   */\n      tag_88\n        /* \"#utility.yul\":2537:2540   */\n      dup5\n        /* \"#utility.yul\":2529:2535   */\n      dup3\n        /* \"#utility.yul\":2522:2526   */\n      0x20\n        /* \"#utility.yul\":2514:2520   */\n      dup7\n        /* \"#utility.yul\":2510:2527   */\n      add\n        /* \"#utility.yul\":2462:2541   */\n      tag_45\n      jump\t// in\n    tag_88:\n        /* \"#utility.yul\":2453:2541   */\n      swap2\n      pop\n        /* \"#utility.yul\":2269:2547   */\n      pop\n        /* \"#utility.yul\":2207:2547   */\n      swap3\n      swap2\n      pop\n      pop\n      jump\t// out\n        /* \"#utility.yul\":2553:3062   */\n    tag_9:\n        /* \"#utility.yul\":2622:2628   */\n      0x00\n        /* \"#utility.yul\":2671:2673   */\n      0x20\n        /* \"#utility.yul\":2659:2668   */\n      dup3\n        /* \"#utility.yul\":2650:2657   */\n      dup5\n        /* \"#utility.yul\":2646:2669   */\n      sub\n        /* \"#utility.yul\":2642:2674   */\n      slt\n        /* \"#utility.yul\":2639:2758   */\n      iszero\n      tag_90\n      jumpi\n        /* \"#utility.yul\":2677:2756   */\n      tag_91\n      tag_35\n      jump\t// in\n    tag_91:\n        /* \"#utility.yul\":2639:2758   */\n    tag_90:\n        /* \"#utility.yul\":2825:2826   */\n      0x00\n        /* \"#utility.yul\":2814:2823   */\n      dup3\n        /* \"#utility.yul\":2810:2827   */\n      add\n        /* \"#utility.yul\":2797:2828   */\n      calldataload\n        /* \"#utility.yul\":2855:2873   */\n      0xffffffffffffffff\n        /* \"#utility.yul\":2847:2853   */\n      dup2\n        /* \"#utility.yul\":2844:2874   */\n      gt\n        /* \"#utility.yul\":2841:2958   */\n      iszero\n      tag_92\n      jumpi\n        /* \"#utility.yul\":2877:2956   */\n      tag_93\n      tag_36\n      jump\t// in\n    tag_93:\n        /* \"#utility.yul\":2841:2958   */\n    tag_92:\n        /* \"#utility.yul\":2982:3045   */\n      tag_94\n        /* \"#utility.yul\":3037:3044   */\n      dup5\n        /* \"#utility.yul\":3028:3034   */\n      dup3\n        /* \"#utility.yul\":3017:3026   */\n      dup6\n        /* \"#utility.yul\":3013:3035   */\n      add\n        /* \"#utility.yul\":2982:3045   */\n      tag_46\n      jump\t// in\n    tag_94:\n        /* \"#utility.yul\":2972:3045   */\n      swap2\n      pop\n        /* \"#utility.yul\":2768:3055   */\n      pop\n        /* \"#utility.yul\":2553:3062   */\n      swap3\n      swap2\n      pop\n      pop\n      jump\t// out\n        /* \"#utility.yul\":3068:3144   */\n    tag_47:\n        /* \"#utility.yul\":3104:3111   */\n      0x00\n        /* \"#utility.yul\":3133:3138   */\n      dup2\n        /* \"#utility.yul\":3122:3138   */\n      swap1\n      pop\n        /* \"#utility.yul\":3068:3144   */\n      swap2\n      swap1\n      pop\n      jump\t// out\n        /* \"#utility.yul\":3150:3265   */\n    tag_48:\n        /* \"#utility.yul\":3235:3258   */\n      tag_97\n        /* \"#utility.yul\":3252:3257   */\n      dup2\n        /* \"#utility.yul\":3235:3258   */\n      tag_47\n      jump\t// in\n    tag_97:\n        /* \"#utility.yul\":3230:3233   */\n      dup3\n        /* \"#utility.yul\":3223:3259   */\n      mstore\n        /* \"#utility.yul\":3150:3265   */\n      pop\n      pop\n      jump\t// out\n        /* \"#utility.yul\":3271:3489   */\n    tag_12:\n        /* \"#utility.yul\":3362:3366   */\n      0x00\n        /* \"#utility.yul\":3400:3402   */\n      0x20\n        /* \"#utility.yul\":3389:3398   */\n      dup3\n        /* \"#utility.yul\":3385:3403   */\n      add\n        /* \"#utility.yul\":3377:3403   */\n      swap1\n      pop\n        /* \"#utility.yul\":3413:3482   */\n      tag_99\n        /* \"#utility.yul\":3479:3480   */\n      0x00\n        /* \"#utility.yul\":3468:3477   */\n      dup4\n        /* \"#utility.yul\":3464:3481   */\n      add\n        /* \"#utility.yul\":3455:3461   */\n      dup5\n        /* \"#utility.yul\":3413:3482   */\n      tag_48\n      jump\t// in\n    tag_99:\n        /* \"#utility.yul\":3271:3489   */\n      swap3\n      swap2\n      pop\n      pop\n      jump\t// out\n        /* \"#utility.yul\":3495:3615   */\n    tag_49:\n        /* \"#utility.yul\":3567:3590   */\n      tag_101\n        /* \"#utility.yul\":3584:3589   */\n      dup2\n        /* \"#utility.yul\":3567:3590   */\n      tag_47\n      jump\t// in\n    tag_101:\n        /* \"#utility.yul\":3560:3565   */\n      dup2\n        /* \"#utility.yul\":3557:3591   */\n      eq\n        /* \"#utility.yul\":3547:3609   */\n      tag_102\n      jumpi\n        /* \"#utility.yul\":3605:3606   */\n      0x00\n        /* \"#utility.yul\":3602:3603   */\n      dup1\n        /* \"#utility.yul\":3595:3607   */\n      revert\n        /* \"#utility.yul\":3547:3609   */\n    tag_102:\n        /* \"#utility.yul\":3495:3615   */\n      pop\n      jump\t// out\n        /* \"#utility.yul\":3621:3758   */\n    tag_50:\n        /* \"#utility.yul\":3666:3671   */\n      0x00\n        /* \"#utility.yul\":3704:3710   */\n      dup2\n        /* \"#utility.yul\":3691:3711   */\n      calldataload\n        /* \"#utility.yul\":3682:3711   */\n      swap1\n      pop\n        /* \"#utility.yul\":3720:3752   */\n      tag_104\n        /* \"#utility.yul\":3746:3751   */\n      dup2\n        /* \"#utility.yul\":3720:3752   */\n      tag_49\n      jump\t// in\n    tag_104:\n        /* \"#utility.yul\":3621:3758   */\n      swap3\n      swap2\n      pop\n      pop\n      jump\t// out\n        /* \"#utility.yul\":3764:4416   */\n    tag_19:\n        /* \"#utility.yul\":3841:3847   */\n      0x00\n        /* \"#utility.yul\":3849:3855   */\n      dup1\n        /* \"#utility.yul\":3898:3900   */\n      0x40\n        /* \"#utility.yul\":3886:3895   */\n      dup4\n        /* \"#utility.yul\":3877:3884   */\n      dup6\n        /* \"#utility.yul\":3873:3896   */\n      sub\n        /* \"#utility.yul\":3869:3901   */\n      slt\n        /* \"#utility.yul\":3866:3985   */\n      iszero\n      tag_106\n      jumpi\n        /* \"#utility.yul\":3904:3983   */\n      tag_107\n      tag_35\n      jump\t// in\n    tag_107:\n        /* \"#utility.yul\":3866:3985   */\n    tag_106:\n        /* \"#utility.yul\":4052:4053   */\n      0x00\n        /* \"#utility.yul\":4041:4050   */\n      dup4\n        /* \"#utility.yul\":4037:4054   */\n      add\n        /* \"#utility.yul\":4024:4055   */\n      calldataload\n        /* \"#utility.yul\":4082:4100   */\n      0xffffffffffffffff\n        /* \"#utility.yul\":4074:4080   */\n      dup2\n        /* \"#utility.yul\":4071:4101   */\n      gt\n        /* \"#utility.yul\":4068:4185   */\n      iszero\n      tag_108\n      jumpi\n        /* \"#utility.yul\":4104:4183   */\n      tag_109\n      tag_36\n      jump\t// in\n    tag_109:\n        /* \"#utility.yul\":4068:4185   */\n    tag_108:\n        /* \"#utility.yul\":4209:4272   */\n      tag_110\n        /* \"#utility.yul\":4264:4271   */\n      dup6\n        /* \"#utility.yul\":4255:4261   */\n      dup3\n        /* \"#utility.yul\":4244:4253   */\n      dup7\n        /* \"#utility.yul\":4240:4262   */\n      add\n        /* \"#utility.yul\":4209:4272   */\n      tag_46\n      jump\t// in\n    tag_110:\n        /* \"#utility.yul\":4199:4272   */\n      swap3\n      pop\n        /* \"#utility.yul\":3995:4282   */\n      pop\n        /* \"#utility.yul\":4321:4323   */\n      0x20\n        /* \"#utility.yul\":4347:4399   */\n      tag_111\n        /* \"#utility.yul\":4391:4398   */\n      dup6\n        /* \"#utility.yul\":4382:4388   */\n      dup3\n        /* \"#utility.yul\":4371:4380   */\n      dup7\n        /* \"#utility.yul\":4367:4389   */\n      add\n        /* \"#utility.yul\":4347:4399   */\n      tag_50\n      jump\t// in\n    tag_111:\n        /* \"#utility.yul\":4337:4399   */\n      swap2\n      pop\n        /* \"#utility.yul\":4292:4409   */\n      pop\n        /* \"#utility.yul\":3764:4416   */\n      swap3\n      pop\n      swap3\n      swap1\n      pop\n      jump\t// out\n        /* \"#utility.yul\":4422:4548   */\n    tag_51:\n        /* \"#utility.yul\":4459:4466   */\n      0x00\n        /* \"#utility.yul\":4499:4541   */\n      0xffffffffffffffffffffffffffffffffffffffff\n        /* \"#utility.yul\":4492:4497   */\n      dup3\n        /* \"#utility.yul\":4488:4542   */\n      and\n        /* \"#utility.yul\":4477:4542   */\n      swap1\n      pop\n        /* \"#utility.yul\":4422:4548   */\n      swap2\n      swap1\n      pop\n      jump\t// out\n        /* \"#utility.yul\":4554:4650   */\n    tag_52:\n        /* \"#utility.yul\":4591:4598   */\n      0x00\n        /* \"#utility.yul\":4620:4644   */\n      tag_114\n        /* \"#utility.yul\":4638:4643   */\n      dup3\n        /* \"#utility.yul\":4620:4644   */\n      tag_51\n      jump\t// in\n    tag_114:\n        /* \"#utility.yul\":4609:4644   */\n      swap1\n      pop\n        /* \"#utility.yul\":4554:4650   */\n      swap2\n      swap1\n      pop\n      jump\t// out\n        /* \"#utility.yul\":4656:4774   */\n    tag_53:\n        /* \"#utility.yul\":4743:4767   */\n      tag_116\n        /* \"#utility.yul\":4761:4766   */\n      dup2\n        /* \"#utility.yul\":4743:4767   */\n      tag_52\n      jump\t// in\n    tag_116:\n        /* \"#utility.yul\":4738:4741   */\n      dup3\n        /* \"#utility.yul\":4731:4768   */\n      mstore\n        /* \"#utility.yul\":4656:4774   */\n      pop\n      pop\n      jump\t// out\n        /* \"#utility.yul\":4780:5002   */\n    tag_24:\n        /* \"#utility.yul\":4873:4877   */\n      0x00\n        /* \"#utility.yul\":4911:4913   */\n      0x20\n        /* \"#utility.yul\":4900:4909   */\n      dup3\n        /* \"#utility.yul\":4896:4914   */\n      add\n        /* \"#utility.yul\":4888:4914   */\n      swap1\n      pop\n        /* \"#utility.yul\":4924:4995   */\n      tag_118\n        /* \"#utility.yul\":4992:4993   */\n      0x00\n        /* \"#utility.yul\":4981:4990   */\n      dup4\n        /* \"#utility.yul\":4977:4994   */\n      add\n        /* \"#utility.yul\":4968:4974   */\n      dup5\n        /* \"#utility.yul\":4924:4995   */\n      tag_53\n      jump\t// in\n    tag_118:\n        /* \"#utility.yul\":4780:5002   */\n      swap3\n      swap2\n      pop\n      pop\n      jump\t// out\n        /* \"#utility.yul\":5008:5107   */\n    tag_54:\n        /* \"#utility.yul\":5060:5066   */\n      0x00\n        /* \"#utility.yul\":5094:5099   */\n      dup2\n        /* \"#utility.yul\":5088:5100   */\n      mload\n        /* \"#utility.yul\":5078:5100   */\n      swap1\n      pop\n        /* \"#utility.yul\":5008:5107   */\n      swap2\n      swap1\n      pop\n      jump\t// out\n        /* \"#utility.yul\":5113:5261   */\n    tag_55:\n        /* \"#utility.yul\":5215:5226   */\n      0x00\n        /* \"#utility.yul\":5252:5255   */\n      dup2\n        /* \"#utility.yul\":5237:5255   */\n      swap1\n      pop\n        /* \"#utility.yul\":5113:5261   */\n      swap3\n      swap2\n      pop\n      pop\n      jump\t// out\n        /* \"#utility.yul\":5267:5513   */\n    tag_56:\n        /* \"#utility.yul\":5348:5349   */\n      0x00\n        /* \"#utility.yul\":5358:5471   */\n    tag_122:\n        /* \"#utility.yul\":5372:5378   */\n      dup4\n        /* \"#utility.yul\":5369:5370   */\n      dup2\n        /* \"#utility.yul\":5366:5379   */\n      lt\n        /* \"#utility.yul\":5358:5471   */\n      iszero\n      tag_124\n      jumpi\n        /* \"#utility.yul\":5457:5458   */\n      dup1\n        /* \"#utility.yul\":5452:5455   */\n      dup3\n        /* \"#utility.yul\":5448:5459   */\n      add\n        /* \"#utility.yul\":5442:5460   */\n      mload\n        /* \"#utility.yul\":5438:5439   */\n      dup2\n        /* \"#utility.yul\":5433:5436   */\n      dup5\n        /* \"#utility.yul\":5429:5440   */\n      add\n        /* \"#utility.yul\":5422:5461   */\n      mstore\n        /* \"#utility.yul\":5394:5396   */\n      0x20\n        /* \"#utility.yul\":5391:5392   */\n      dup2\n        /* \"#utility.yul\":5387:5397   */\n      add\n        /* \"#utility.yul\":5382:5397   */\n      swap1\n      pop\n        /* \"#utility.yul\":5358:5471   */\n      jump(tag_122)\n    tag_124:\n        /* \"#utility.yul\":5505:5506   */\n      0x00\n        /* \"#utility.yul\":5496:5502   */\n      dup5\n        /* \"#utility.yul\":5491:5494   */\n      dup5\n        /* \"#utility.yul\":5487:5503   */\n      add\n        /* \"#utility.yul\":5480:5507   */\n      mstore\n        /* \"#utility.yul\":5329:5513   */\n      pop\n        /* \"#utility.yul\":5267:5513   */\n      pop\n      pop\n      pop\n      jump\t// out\n        /* \"#utility.yul\":5519:5909   */\n    tag_57:\n        /* \"#utility.yul\":5625:5628   */\n      0x00\n        /* \"#utility.yul\":5653:5692   */\n      tag_126\n        /* \"#utility.yul\":5686:5691   */\n      dup3\n        /* \"#utility.yul\":5653:5692   */\n      tag_54\n      jump\t// in\n    tag_126:\n        /* \"#utility.yul\":5708:5797   */\n      tag_127\n        /* \"#utility.yul\":5790:5796   */\n      dup2\n        /* \"#utility.yul\":5785:5788   */\n      dup6\n        /* \"#utility.yul\":5708:5797   */\n      tag_55\n      jump\t// in\n    tag_127:\n        /* \"#utility.yul\":5701:5797   */\n      swap4\n      pop\n        /* \"#utility.yul\":5806:5871   */\n      tag_128\n        /* \"#utility.yul\":5864:5870   */\n      dup2\n        /* \"#utility.yul\":5859:5862   */\n      dup6\n        /* \"#utility.yul\":5852:5856   */\n      0x20\n        /* \"#utility.yul\":5845:5850   */\n      dup7\n        /* \"#utility.yul\":5841:5857   */\n      add\n        /* \"#utility.yul\":5806:5871   */\n      tag_56\n      jump\t// in\n    tag_128:\n        /* \"#utility.yul\":5896:5902   */\n      dup1\n        /* \"#utility.yul\":5891:5894   */\n      dup5\n        /* \"#utility.yul\":5887:5903   */\n      add\n        /* \"#utility.yul\":5880:5903   */\n      swap2\n      pop\n        /* \"#utility.yul\":5629:5909   */\n      pop\n        /* \"#utility.yul\":5519:5909   */\n      swap3\n      swap2\n      pop\n      pop\n      jump\t// out\n        /* \"#utility.yul\":5915:6190   */\n    tag_27:\n        /* \"#utility.yul\":6047:6050   */\n      0x00\n        /* \"#utility.yul\":6069:6164   */\n      tag_130\n        /* \"#utility.yul\":6160:6163   */\n      dup3\n        /* \"#utility.yul\":6151:6157   */\n      dup5\n        /* \"#utility.yul\":6069:6164   */\n      tag_57\n      jump\t// in\n    tag_130:\n        /* \"#utility.yul\":6062:6164   */\n      swap2\n      pop\n        /* \"#utility.yul\":6181:6184   */\n      dup2\n        /* \"#utility.yul\":6174:6184   */\n      swap1\n      pop\n        /* \"#utility.yul\":5915:6190   */\n      swap3\n      swap2\n      pop\n      pop\n      jump\t// out\n        /* \"#utility.yul\":6196:6376   */\n    tag_58:\n        /* \"#utility.yul\":6244:6321   */\n      0x4e487b7100000000000000000000000000000000000000000000000000000000\n        /* \"#utility.yul\":6241:6242   */\n      0x00\n        /* \"#utility.yul\":6234:6322   */\n      mstore\n        /* \"#utility.yul\":6341:6345   */\n      0x11\n        /* \"#utility.yul\":6338:6339   */\n      0x04\n        /* \"#utility.yul\":6331:6346   */\n      mstore\n        /* \"#utility.yul\":6365:6369   */\n      0x24\n        /* \"#utility.yul\":6362:6363   */\n      0x00\n        /* \"#utility.yul\":6355:6370   */\n      revert\n        /* \"#utility.yul\":6382:6757   */\n    tag_33:\n        /* \"#utility.yul\":6421:6424   */\n      0x00\n        /* \"#utility.yul\":6440:6459   */\n      tag_133\n        /* \"#utility.yul\":6457:6458   */\n      dup3\n        /* \"#utility.yul\":6440:6459   */\n      tag_47\n      jump\t// in\n    tag_133:\n        /* \"#utility.yul\":6435:6459   */\n      swap2\n      pop\n        /* \"#utility.yul\":6473:6492   */\n      tag_134\n        /* \"#utility.yul\":6490:6491   */\n      dup4\n        /* \"#utility.yul\":6473:6492   */\n      tag_47\n      jump\t// in\n    tag_134:\n        /* \"#utility.yul\":6468:6492   */\n      swap3\n      pop\n        /* \"#utility.yul\":6515:6516   */\n      dup3\n        /* \"#utility.yul\":6512:6513   */\n      dup3\n        /* \"#utility.yul\":6508:6517   */\n      add\n        /* \"#utility.yul\":6501:6517   */\n      swap1\n      pop\n        /* \"#utility.yul\":6713:6714   */\n      dup3\n        /* \"#utility.yul\":6708:6711   */\n      dup2\n        /* \"#utility.yul\":6704:6715   */\n      slt\n        /* \"#utility.yul\":6697:6716   */\n      iszero\n        /* \"#utility.yul\":6693:6694   */\n      0x00\n        /* \"#utility.yul\":6690:6691   */\n      dup4\n        /* \"#utility.yul\":6686:6695   */\n      slt\n        /* \"#utility.yul\":6682:6717   */\n      and\n        /* \"#utility.yul\":6665:6666   */\n      dup4\n        /* \"#utility.yul\":6660:6663   */\n      dup3\n        /* \"#utility.yul\":6656:6667   */\n      slt\n        /* \"#utility.yul\":6651:6652   */\n      0x00\n        /* \"#utility.yul\":6648:6649   */\n      dup5\n        /* \"#utility.yul\":6644:6653   */\n      slt\n        /* \"#utility.yul\":6637:6654   */\n      iszero\n        /* \"#utility.yul\":6633:6668   */\n      and\n        /* \"#utility.yul\":6617:6727   */\n      or\n        /* \"#utility.yul\":6614:6750   */\n      iszero\n      tag_135\n      jumpi\n        /* \"#utility.yul\":6730:6748   */\n      tag_136\n      tag_58\n      jump\t// in\n    tag_136:\n        /* \"#utility.yul\":6614:6750   */\n    tag_135:\n        /* \"#utility.yul\":6382:6757   */\n      swap3\n      swap2\n      pop\n      pop\n      jump\t// out\n\n    auxdata: 0xa2646970667358221220a6f9fecaca7d49832ea2f820c952258b1f4a8b47f2690df4645ef12ddd3693ff64736f6c63430008120033\n}\n",
				"bytecode": {
					"linkReferences": {},
					"object": "60806040523480156200001157600080fd5b50604051620009553803806200095583398181016040528101906200003791906200018a565b806000806101000a81548173ffffffffffffffffffffffffffffffffffffffff021916908373ffffffffffffffffffffffffffffffffffffffff160217905550620000876200008e60201b60201c565b5062000363565b60006001604051620000a09062000217565b90815260200160405180910390208190555060006001604051620000c4906200027e565b90815260200160405180910390208190555060006001604051620000e890620002e5565b908152602001604051809103902081905550600060016040516200010c906200034c565b908152602001604051809103902081905550565b600080fd5b600073ffffffffffffffffffffffffffffffffffffffff82169050919050565b6000620001528262000125565b9050919050565b620001648162000145565b81146200017057600080fd5b50565b600081519050620001848162000159565b92915050565b600060208284031215620001a357620001a262000120565b5b6000620001b38482850162000173565b91505092915050565b600081905092915050565b7f6a616c0000000000000000000000000000000000000000000000000000000000600082015250565b6000620001ff600383620001bc565b91506200020c82620001c7565b600382019050919050565b60006200022482620001f0565b9150819050919050565b7f7661797500000000000000000000000000000000000000000000000000000000600082015250565b600062000266600483620001bc565b915062000273826200022e565b600482019050919050565b60006200028b8262000257565b9150819050919050565b7f61676e6900000000000000000000000000000000000000000000000000000000600082015250565b6000620002cd600483620001bc565b9150620002da8262000295565b600482019050919050565b6000620002f282620002be565b9150819050919050565b7f6e616e6469000000000000000000000000000000000000000000000000000000600082015250565b600062000334600583620001bc565b91506200034182620002fc565b600582019050919050565b6000620003598262000325565b9150819050919050565b6105e280620003736000396000f3fe608060405234801561001057600080fd5b506004361061004c5760003560e01c80630c173c02146100515780631602027314610081578063e65d6193146100b1578063f851a440146100cd575b600080fd5b61006b60048036038101906100669190610350565b6100eb565b60405161007891906103b2565b60405180910390f35b61009b60048036038101906100969190610350565b610119565b6040516100a891906103b2565b60405180910390f35b6100cb60048036038101906100c691906103f9565b610141565b005b6100d56101d2565b6040516100e29190610496565b60405180910390f35b6001818051602081018201805184825260208301602085012081835280955050505050506000915090505481565b600060018260405161012b9190610522565b9081526020016040518091039020549050919050565b60008054906101000a900473ffffffffffffffffffffffffffffffffffffffff1673ffffffffffffffffffffffffffffffffffffffff163373ffffffffffffffffffffffffffffffffffffffff161461019957600080fd5b806001836040516101aa9190610522565b908152602001604051809103902060008282546101c79190610568565b925050819055505050565b60008054906101000a900473ffffffffffffffffffffffffffffffffffffffff1681565b6000604051905090565b600080fd5b600080fd5b600080fd5b600080fd5b6000601f19601f8301169050919050565b7f4e487b7100000000000000000000000000000000000000000000000000000000600052604160045260246000fd5b61025d82610214565b810181811067ffffffffffffffff8211171561027c5761027b610225565b5b80604052505050565b600061028f6101f6565b905061029b8282610254565b919050565b600067ffffffffffffffff8211156102bb576102ba610225565b5b6102c482610214565b9050602081019050919050565b82818337600083830152505050565b60006102f36102ee846102a0565b610285565b90508281526020810184848401111561030f5761030e61020f565b5b61031a8482856102d1565b509392505050565b600082601f8301126103375761033661020a565b5b81356103478482602086016102e0565b91505092915050565b60006020828403121561036657610365610200565b5b600082013567ffffffffffffffff81111561038457610383610205565b5b61039084828501610322565b91505092915050565b6000819050919050565b6103ac81610399565b82525050565b60006020820190506103c760008301846103a3565b92915050565b6103d681610399565b81146103e157600080fd5b50565b6000813590506103f3816103cd565b92915050565b600080604083850312156104105761040f610200565b5b600083013567ffffffffffffffff81111561042e5761042d610205565b5b61043a85828601610322565b925050602061044b858286016103e4565b9150509250929050565b600073ffffffffffffffffffffffffffffffffffffffff82169050919050565b600061048082610455565b9050919050565b61049081610475565b82525050565b60006020820190506104ab6000830184610487565b92915050565b600081519050919050565b600081905092915050565b60005b838110156104e55780820151818401526020810190506104ca565b60008484015250505050565b60006104fc826104b1565b61050681856104bc565b93506105168185602086016104c7565b80840191505092915050565b600061052e82846104f1565b915081905092915050565b7f4e487b7100000000000000000000000000000000000000000000000000000000600052601160045260246000fd5b600061057382610399565b915061057e83610399565b9250828201905082811215600083121683821260008412151617156105a6576105a5610539565b5b9291505056fea2646970667358221220a6f9fecaca7d49832ea2f820c952258b1f4a8b47f2690df4645ef12ddd3693ff64736f6c63430008120033",
					"opcodes": "PUSH1 0x80 PUSH1 0x40 MSTORE CALLVALUE DUP1 ISZERO PUSH3 0x11 JUMPI PUSH1 0x0 DUP1 REVERT JUMPDEST POP PUSH1 0x40 MLOAD PUSH3 0x955 CODESIZE SUB DUP1 PUSH3 0x955 DUP4 CODECOPY DUP2 DUP2 ADD PUSH1 0x40 MSTORE DUP2 ADD SWAP1 PUSH3 0x37 SWAP2 SWAP1 PUSH3 0x18A JUMP JUMPDEST DUP1 PUSH1 0x0 DUP1 PUSH2 0x100 EXP DUP2 SLOAD DUP2 PUSH20 0xFFFFFFFFFFFFFFFFFFFFFFFFFFFFFFFFFFFFFFFF MUL NOT AND SWAP1 DUP4 PUSH20 0xFFFFFFFFFFFFFFFFFFFFFFFFFFFFFFFFFFFFFFFF AND MUL OR SWAP1 SSTORE POP PUSH3 0x87 PUSH3 0x8E PUSH1 0x20 SHL PUSH1 0x20 SHR JUMP JUMPDEST POP PUSH3 0x363 JUMP JUMPDEST PUSH1 0x0 PUSH1 0x1 PUSH1 0x40 MLOAD PUSH3 0xA0 SWAP1 PUSH3 0x217 JUMP JUMPDEST SWAP1 DUP2 MSTORE PUSH1 0x20 ADD PUSH1 0x40 MLOAD DUP1 SWAP2 SUB SWAP1 KECCAK256 DUP2 SWAP1 SSTORE POP PUSH1 0x0 PUSH1 0x1 PUSH1 0x40 MLOAD PUSH3 0xC4 SWAP1 PUSH3 0x27E JUMP JUMPDEST SWAP1 DUP2 MSTORE PUSH1 0x20 ADD PUSH1 0x40 MLOAD DUP1 SWAP2 SUB SWAP1 KECCAK256 DUP2 SWAP1 SSTORE POP PUSH1 0x0 PUSH1 0x1 PUSH1 0x40 MLOAD PUSH3 0xE8 SWAP1 PUSH3 0x2E5 JUMP JUMPDEST SWAP1 DUP2 MSTORE PUSH1 0x20 ADD PUSH1 0x40 MLOAD DUP1 SWAP2 SUB SWAP1 KECCAK256 DUP2 SWAP1 SSTORE POP PUSH1 0x0 PUSH1 0x1 PUSH1 0x40 MLOAD PUSH3 0x10C SWAP1 PUSH3 0x34C JUMP JUMPDEST SWAP1 DUP2 MSTORE PUSH1 0x20 ADD PUSH1 0x40 MLOAD DUP1 SWAP2 SUB SWAP1 KECCAK256 DUP2 SWAP1 SSTORE POP JUMP JUMPDEST PUSH1 0x0 DUP1 REVERT JUMPDEST PUSH1 0x0 PUSH20 0xFFFFFFFFFFFFFFFFFFFFFFFFFFFFFFFFFFFFFFFF DUP3 AND SWAP1 POP SWAP2 SWAP1 POP JUMP JUMPDEST PUSH1 0x0 PUSH3 0x152 DUP3 PUSH3 0x125 JUMP JUMPDEST SWAP1 POP SWAP2 SWAP1 POP JUMP JUMPDEST PUSH3 0x164 DUP2 PUSH3 0x145 JUMP JUMPDEST DUP2 EQ PUSH3 0x170 JUMPI PUSH1 0x0 DUP1 REVERT JUMPDEST POP JUMP JUMPDEST PUSH1 0x0 DUP2 MLOAD SWAP1 POP PUSH3 0x184 DUP2 PUSH3 0x159 JUMP JUMPDEST SWAP3 SWAP2 POP POP JUMP JUMPDEST PUSH1 0x0 PUSH1 0x20 DUP3 DUP5 SUB SLT ISZERO PUSH3 0x1A3 JUMPI PUSH3 0x1A2 PUSH3 0x120 JUMP JUMPDEST JUMPDEST PUSH1 0x0 PUSH3 0x1B3 DUP5 DUP3 DUP6 ADD PUSH3 0x173 JUMP JUMPDEST SWAP2 POP POP SWAP3 SWAP2 POP POP JUMP JUMPDEST PUSH1 0x0 DUP2 SWAP1 POP SWAP3 SWAP2 POP POP JUMP JUMPDEST PUSH32 0x6A616C0000000000000000000000000000000000000000000000000000000000 PUSH1 0x0 DUP3 ADD MSTORE POP JUMP JUMPDEST PUSH1 0x0 PUSH3 0x1FF PUSH1 0x3 DUP4 PUSH3 0x1BC JUMP JUMPDEST SWAP2 POP PUSH3 0x20C DUP3 PUSH3 0x1C7 JUMP JUMPDEST PUSH1 0x3 DUP3 ADD SWAP1 POP SWAP2 SWAP1 POP JUMP JUMPDEST PUSH1 0x0 PUSH3 0x224 DUP3 PUSH3 0x1F0 JUMP JUMPDEST SWAP2 POP DUP2 SWAP1 POP SWAP2 SWAP1 POP JUMP JUMPDEST PUSH32 0x7661797500000000000000000000000000000000000000000000000000000000 PUSH1 0x0 DUP3 ADD MSTORE POP JUMP JUMPDEST PUSH1 0x0 PUSH3 0x266 PUSH1 0x4 DUP4 PUSH3 0x1BC JUMP JUMPDEST SWAP2 POP PUSH3 0x273 DUP3 PUSH3 0x22E JUMP JUMPDEST PUSH1 0x4 DUP3 ADD SWAP1 POP SWAP2 SWAP1 POP JUMP JUMPDEST PUSH1 0x0 PUSH3 0x28B DUP3 PUSH3 0x257 JUMP JUMPDEST SWAP2 POP DUP2 SWAP1 POP SWAP2 SWAP1 POP JUMP JUMPDEST PUSH32 0x61676E6900000000000000000000000000000000000000000000000000000000 PUSH1 0x0 DUP3 ADD MSTORE POP JUMP JUMPDEST PUSH1 0x0 PUSH3 0x2CD PUSH1 0x4 DUP4 PUSH3 0x1BC JUMP JUMPDEST SWAP2 POP PUSH3 0x2DA DUP3 PUSH3 0x295 JUMP JUMPDEST PUSH1 0x4 DUP3 ADD SWAP1 POP SWAP2 SWAP1 POP JUMP JUMPDEST PUSH1 0x0 PUSH3 0x2F2 DUP3 PUSH3 0x2BE JUMP JUMPDEST SWAP2 POP DUP2 SWAP1 POP SWAP2 SWAP1 POP JUMP JUMPDEST PUSH32 0x6E616E6469000000000000000000000000000000000000000000000000000000 PUSH1 0x0 DUP3 ADD MSTORE POP JUMP JUMPDEST PUSH1 0x0 PUSH3 0x334 PUSH1 0x5 DUP4 PUSH3 0x1BC JUMP JUMPDEST SWAP2 POP PUSH3 0x341 DUP3 PUSH3 0x2FC JUMP JUMPDEST PUSH1 0x5 DUP3 ADD SWAP1 POP SWAP2 SWAP1 POP JUMP JUMPDEST PUSH1 0x0 PUSH3 0x359 DUP3 PUSH3 0x325 JUMP JUMPDEST SWAP2 POP DUP2 SWAP1 POP SWAP2 SWAP1 POP JUMP JUMPDEST PUSH2 0x5E2 DUP1 PUSH3 0x373 PUSH1 0x0 CODECOPY PUSH1 0x0 RETURN INVALID PUSH1 0x80 PUSH1 0x40 MSTORE CALLVALUE DUP1 ISZERO PUSH2 0x10 JUMPI PUSH1 0x0 DUP1 REVERT JUMPDEST POP PUSH1 0x4 CALLDATASIZE LT PUSH2 0x4C JUMPI PUSH1 0x0 CALLDATALOAD PUSH1 0xE0 SHR DUP1 PUSH4 0xC173C02 EQ PUSH2 0x51 JUMPI DUP1 PUSH4 0x16020273 EQ PUSH2 0x81 JUMPI DUP1 PUSH4 0xE65D6193 EQ PUSH2 0xB1 JUMPI DUP1 PUSH4 0xF851A440 EQ PUSH2 0xCD JUMPI JUMPDEST PUSH1 0x0 DUP1 REVERT JUMPDEST PUSH2 0x6B PUSH1 0x4 DUP1 CALLDATASIZE SUB DUP2 ADD SWAP1 PUSH2 0x66 SWAP2 SWAP1 PUSH2 0x350 JUMP JUMPDEST PUSH2 0xEB JUMP JUMPDEST PUSH1 0x40 MLOAD PUSH2 0x78 SWAP2 SWAP1 PUSH2 0x3B2 JUMP JUMPDEST PUSH1 0x40 MLOAD DUP1 SWAP2 SUB SWAP1 RETURN JUMPDEST PUSH2 0x9B PUSH1 0x4 DUP1 CALLDATASIZE SUB DUP2 ADD SWAP1 PUSH2 0x96 SWAP2 SWAP1 PUSH2 0x350 JUMP JUMPDEST PUSH2 0x119 JUMP JUMPDEST PUSH1 0x40 MLOAD PUSH2 0xA8 SWAP2 SWAP1 PUSH2 0x3B2 JUMP JUMPDEST PUSH1 0x40 MLOAD DUP1 SWAP2 SUB SWAP1 RETURN JUMPDEST PUSH2 0xCB PUSH1 0x4 DUP1 CALLDATASIZE SUB DUP2 ADD SWAP1 PUSH2 0xC6 SWAP2 SWAP1 PUSH2 0x3F9 JUMP JUMPDEST PUSH2 0x141 JUMP JUMPDEST STOP JUMPDEST PUSH2 0xD5 PUSH2 0x1D2 JUMP JUMPDEST PUSH1 0x40 MLOAD PUSH2 0xE2 SWAP2 SWAP1 PUSH2 0x496 JUMP JUMPDEST PUSH1 0x40 MLOAD DUP1 SWAP2 SUB SWAP1 RETURN JUMPDEST PUSH1 0x1 DUP2 DUP1 MLOAD PUSH1 0x20 DUP2 ADD DUP3 ADD DUP1 MLOAD DUP5 DUP3 MSTORE PUSH1 0x20 DUP4 ADD PUSH1 0x20 DUP6 ADD KECCAK256 DUP2 DUP4 MSTORE DUP1 SWAP6 POP POP POP POP POP POP PUSH1 0x0 SWAP2 POP SWAP1 POP SLOAD DUP2 JUMP JUMPDEST PUSH1 0x0 PUSH1 0x1 DUP3 PUSH1 0x40 MLOAD PUSH2 0x12B SWAP2 SWAP1 PUSH2 0x522 JUMP JUMPDEST SWAP1 DUP2 MSTORE PUSH1 0x20 ADD PUSH1 0x40 MLOAD DUP1 SWAP2 SUB SWAP1 KECCAK256 SLOAD SWAP1 POP SWAP2 SWAP1 POP JUMP JUMPDEST PUSH1 0x0 DUP1 SLOAD SWAP1 PUSH2 0x100 EXP SWAP1 DIV PUSH20 0xFFFFFFFFFFFFFFFFFFFFFFFFFFFFFFFFFFFFFFFF AND PUSH20 0xFFFFFFFFFFFFFFFFFFFFFFFFFFFFFFFFFFFFFFFF AND CALLER PUSH20 0xFFFFFFFFFFFFFFFFFFFFFFFFFFFFFFFFFFFFFFFF AND EQ PUSH2 0x199 JUMPI PUSH1 0x0 DUP1 REVERT JUMPDEST DUP1 PUSH1 0x1 DUP4 PUSH1 0x40 MLOAD PUSH2 0x1AA SWAP2 SWAP1 PUSH2 0x522 JUMP JUMPDEST SWAP1 DUP2 MSTORE PUSH1 0x20 ADD PUSH1 0x40 MLOAD DUP1 SWAP2 SUB SWAP1 KECCAK256 PUSH1 0x0 DUP3 DUP3 SLOAD PUSH2 0x1C7 SWAP2 SWAP1 PUSH2 0x568 JUMP JUMPDEST SWAP3 POP POP DUP2 SWAP1 SSTORE POP POP POP JUMP JUMPDEST PUSH1 0x0 DUP1 SLOAD SWAP1 PUSH2 0x100 EXP SWAP1 DIV PUSH20 0xFFFFFFFFFFFFFFFFFFFFFFFFFFFFFFFFFFFFFFFF AND DUP2 JUMP JUMPDEST PUSH1 0x0 PUSH1 0x40 MLOAD SWAP1 POP SWAP1 JUMP JUMPDEST PUSH1 0x0 DUP1 REVERT JUMPDEST PUSH1 0x0 DUP1 REVERT JUMPDEST PUSH1 0x0 DUP1 REVERT JUMPDEST PUSH1 0x0 DUP1 REVERT JUMPDEST PUSH1 0x0 PUSH1 0x1F NOT PUSH1 0x1F DUP4 ADD AND SWAP1 POP SWAP2 SWAP1 POP JUMP JUMPDEST PUSH32 0x4E487B7100000000000000000000000000000000000000000000000000000000 PUSH1 0x0 MSTORE PUSH1 0x41 PUSH1 0x4 MSTORE PUSH1 0x24 PUSH1 0x0 REVERT JUMPDEST PUSH2 0x25D DUP3 PUSH2 0x214 JUMP JUMPDEST DUP2 ADD DUP2 DUP2 LT PUSH8 0xFFFFFFFFFFFFFFFF DUP3 GT OR ISZERO PUSH2 0x27C JUMPI PUSH2 0x27B PUSH2 0x225 JUMP JUMPDEST JUMPDEST DUP1 PUSH1 0x40 MSTORE POP POP POP JUMP JUMPDEST PUSH1 0x0 PUSH2 0x28F PUSH2 0x1F6 JUMP JUMPDEST SWAP1 POP PUSH2 0x29B DUP3 DUP3 PUSH2 0x254 JUMP JUMPDEST SWAP2 SWAP1 POP JUMP JUMPDEST PUSH1 0x0 PUSH8 0xFFFFFFFFFFFFFFFF DUP3 GT ISZERO PUSH2 0x2BB JUMPI PUSH2 0x2BA PUSH2 0x225 JUMP JUMPDEST JUMPDEST PUSH2 0x2C4 DUP3 PUSH2 0x214 JUMP JUMPDEST SWAP1 POP PUSH1 0x20 DUP2 ADD SWAP1 POP SWAP2 SWAP1 POP JUMP JUMPDEST DUP3 DUP2 DUP4 CALLDATACOPY PUSH1 0x0 DUP4 DUP4 ADD MSTORE POP POP POP JUMP JUMPDEST PUSH1 0x0 PUSH2 0x2F3 PUSH2 0x2EE DUP5 PUSH2 0x2A0 JUMP JUMPDEST PUSH2 0x285 JUMP JUMPDEST SWAP1 POP DUP3 DUP2 MSTORE PUSH1 0x20 DUP2 ADD DUP5 DUP5 DUP5 ADD GT ISZERO PUSH2 0x30F JUMPI PUSH2 0x30E PUSH2 0x20F JUMP JUMPDEST JUMPDEST PUSH2 0x31A DUP5 DUP3 DUP6 PUSH2 0x2D1 JUMP JUMPDEST POP SWAP4 SWAP3 POP POP POP JUMP JUMPDEST PUSH1 0x0 DUP3 PUSH1 0x1F DUP4 ADD SLT PUSH2 0x337 JUMPI PUSH2 0x336 PUSH2 0x20A JUMP JUMPDEST JUMPDEST DUP2 CALLDATALOAD PUSH2 0x347 DUP5 DUP3 PUSH1 0x20 DUP7 ADD PUSH2 0x2E0 JUMP JUMPDEST SWAP2 POP POP SWAP3 SWAP2 POP POP JUMP JUMPDEST PUSH1 0x0 PUSH1 0x20 DUP3 DUP5 SUB SLT ISZERO PUSH2 0x366 JUMPI PUSH2 0x365 PUSH2 0x200 JUMP JUMPDEST JUMPDEST PUSH1 0x0 DUP3 ADD CALLDATALOAD PUSH8 0xFFFFFFFFFFFFFFFF DUP2 GT ISZERO PUSH2 0x384 JUMPI PUSH2 0x383 PUSH2 0x205 JUMP JUMPDEST JUMPDEST PUSH2 0x390 DUP5 DUP3 DUP6 ADD PUSH2 0x322 JUMP JUMPDEST SWAP2 POP POP SWAP3 SWAP2 POP POP JUMP JUMPDEST PUSH1 0x0 DUP2 SWAP1 POP SWAP2 SWAP1 POP JUMP JUMPDEST PUSH2 0x3AC DUP2 PUSH2 0x399 JUMP JUMPDEST DUP3 MSTORE POP POP JUMP JUMPDEST PUSH1 0x0 PUSH1 0x20 DUP3 ADD SWAP1 POP PUSH2 0x3C7 PUSH1 0x0 DUP4 ADD DUP5 PUSH2 0x3A3 JUMP JUMPDEST SWAP3 SWAP2 POP POP JUMP JUMPDEST PUSH2 0x3D6 DUP2 PUSH2 0x399 JUMP JUMPDEST DUP2 EQ PUSH2 0x3E1 JUMPI PUSH1 0x0 DUP1 REVERT JUMPDEST POP JUMP JUMPDEST PUSH1 0x0 DUP2 CALLDATALOAD SWAP1 POP PUSH2 0x3F3 DUP2 PUSH2 0x3CD JUMP JUMPDEST SWAP3 SWAP2 POP POP JUMP JUMPDEST PUSH1 0x0 DUP1 PUSH1 0x40 DUP4 DUP6 SUB SLT ISZERO PUSH2 0x410 JUMPI PUSH2 0x40F PUSH2 0x200 JUMP JUMPDEST JUMPDEST PUSH1 0x0 DUP4 ADD CALLDATALOAD PUSH8 0xFFFFFFFFFFFFFFFF DUP2 GT ISZERO PUSH2 0x42E JUMPI PUSH2 0x42D PUSH2 0x205 JUMP JUMPDEST JUMPDEST PUSH2 0x43A DUP6 DUP3 DUP7 ADD PUSH2 0x322 JUMP JUMPDEST SWAP3 POP POP PUSH1 0x20 PUSH2 0x44B DUP6 DUP3 DUP7 ADD PUSH2 0x3E4 JUMP JUMPDEST SWAP2 POP POP SWAP3 POP SWAP3 SWAP1 POP JUMP JUMPDEST PUSH1 0x0 PUSH20 0xFFFFFFFFFFFFFFFFFFFFFFFFFFFFFFFFFFFFFFFF DUP3 AND SWAP1 POP SWAP2 SWAP1 POP JUMP JUMPDEST PUSH1 0x0 PUSH2 0x480 DUP3 PUSH2 0x455 JUMP JUMPDEST SWAP1 POP SWAP2 SWAP1 POP JUMP JUMPDEST PUSH2 0x490 DUP2 PUSH2 0x475 JUMP JUMPDEST DUP3 MSTORE POP POP JUMP JUMPDEST PUSH1 0x0 PUSH1 0x20 DUP3 ADD SWAP1 POP PUSH2 0x4AB PUSH1 0x0 DUP4 ADD DUP5 PUSH2 0x487 JUMP JUMPDEST SWAP3 SWAP2 POP POP JUMP JUMPDEST PUSH1 0x0 DUP2 MLOAD SWAP1 POP SWAP2 SWAP1 POP JUMP JUMPDEST PUSH1 0x0 DUP2 SWAP1 POP SWAP3 SWAP2 POP POP JUMP JUMPDEST PUSH1 0x0 JUMPDEST DUP4 DUP2 LT ISZERO PUSH2 0x4E5 JUMPI DUP1 DUP3 ADD MLOAD DUP2 DUP5 ADD MSTORE PUSH1 0x20 DUP2 ADD SWAP1 POP PUSH2 0x4CA JUMP JUMPDEST PUSH1 0x0 DUP5 DUP5 ADD MSTORE POP POP POP POP JUMP JUMPDEST PUSH1 0x0 PUSH2 0x4FC DUP3 PUSH2 0x4B1 JUMP JUMPDEST PUSH2 0x506 DUP2 DUP6 PUSH2 0x4BC JUMP JUMPDEST SWAP4 POP PUSH2 0x516 DUP2 DUP6 PUSH1 0x20 DUP7 ADD PUSH2 0x4C7 JUMP JUMPDEST DUP1 DUP5 ADD SWAP2 POP POP SWAP3 SWAP2 POP POP JUMP JUMPDEST PUSH1 0x0 PUSH2 0x52E DUP3 DUP5 PUSH2 0x4F1 JUMP JUMPDEST SWAP2 POP DUP2 SWAP1 POP SWAP3 SWAP2 POP POP JUMP JUMPDEST PUSH32 0x4E487B7100000000000000000000000000000000000000000000000000000000 PUSH1 0x0 MSTORE PUSH1 0x11 PUSH1 0x4 MSTORE PUSH1 0x24 PUSH1 0x0 REVERT JUMPDEST PUSH1 0x0 PUSH2 0x573 DUP3 PUSH2 0x399 JUMP JUMPDEST SWAP2 POP PUSH2 0x57E DUP4 PUSH2 0x399 JUMP JUMPDEST SWAP3 POP DUP3 DUP3 ADD SWAP1 POP DUP3 DUP2 SLT ISZERO PUSH1 0x0 DUP4 SLT AND DUP4 DUP3 SLT PUSH1 0x0 DUP5 SLT ISZERO AND OR ISZERO PUSH2 0x5A6 JUMPI PUSH2 0x5A5 PUSH2 0x539 JUMP JUMPDEST JUMPDEST SWAP3 SWAP2 POP POP JUMP INVALID LOG2 PUSH5 0x6970667358 0x22 SLT KECCAK256 0xA6 0xF9 INVALID 0xCA 0xCA PUSH30 0x49832EA2F820C952258B1F4A8B47F2690DF4645EF12DDD3693FF64736F6C PUSH4 0x43000812 STOP CALLER "
				},
				"gasEstimates": {
					"creation": {
						"codeDepositCost": "301200",
						"executionCost": "infinite",
						"totalCost": "infinite"
					},
					"external": {
						"admin()": "2555",
						"getScore(string)": "infinite",
						"teams(string)": "infinite",
						"updateScore(string,int256)": "infinite"
					},
					"internal": {
						"initializeTeams()": "infinite"
					}
				},
				"methodIdentifiers": {
					"admin()": "f851a440",
					"getScore(string)": "16020273",
					"teams(string)": "0c173c02",
					"updateScore(string,int256)": "e65d6193"
				}
			},
			"storageLayout": {
				"storage": [
					{
						"astId": 3,
						"contract": "contracts/Avirbhav.sol:Avirbhav",
						"label": "admin",
						"offset": 0,
						"slot": "0",
						"type": "t_address"
					},
					{
						"astId": 7,
						"contract": "contracts/Avirbhav.sol:Avirbhav",
						"label": "teams",
						"offset": 0,
						"slot": "1",
						"type": "t_mapping(t_string_memory_ptr,t_int256)"
					}
				],
				"types": {
					"t_address": {
						"encoding": "inplace",
						"label": "address",
						"numberOfBytes": "20"
					},
					"t_int256": {
						"encoding": "inplace",
						"label": "int256",
						"numberOfBytes": "32"
					},
					"t_mapping(t_string_memory_ptr,t_int256)": {
						"encoding": "mapping",
						"key": "t_string_memory_ptr",
						"label": "mapping(string => int256)",
						"numberOfBytes": "32",
						"value": "t_int256"
					},
					"t_string_memory_ptr": {
						"encoding": "bytes",
						"label": "string",
						"numberOfBytes": "32"
					}
				}
			},
			"userdoc": {
				"kind": "user",
				"methods": {},
				"version": 1
			}
		}
	}
}